:020000040800F2
:10000000D806002029020008310200083302000847
:10001000350200083702000839020008000000001D
:100020000000000000000000000000003B0200088B
:100030003D020008000000003F020008A906000879
:10004000430200084302000843020008430200087C
:10005000430200084302000843020008430200086C
:10006000430200084302000843020008430200085C
:10007000430200084302000843020008430200084C
:10008000430200084302000843020008430200083C
:10009000430200084302000843020008430200082C
:1000A000430200084302000843020008430200081C
:1000B000430200084302000843020008430200080C
:1000C00043020008430200084302000843020008FC
:1000D00043020008430200084302000843020008EC
:1000E00043020008430200084302000843020008DC
:1000F00043020008430200084302000843020008CC
:1001000043020008430200084302000843020008BB
:1001100043020008430200084302000843020008AB
:10012000430200084302000843020008430200089B
:10013000430200084302000843020008430200088B
:10014000430200084302000843020008430200087B
:10015000430200084302000843020008430200086B
:10016000430200084302000843020008430200085B
:100170004302000843020008430200080000000098
:10018000430200084302000800F002F800F03CF8C7
:100190000AA090E8000C82448344AAF10107DA45E2
:1001A00001D100F031F8AFF2090EBAE80F0013F0F8
:1001B000010F18BFFB1A43F001031847E40A0000BF
:1001C000040B0000103A24BF78C878C1FAD852074F
:1001D00024BF30C830C144BF04680C6070470000C1
:1001E0000023002400250026103A28BF78C1FBD840
:1001F000520728BF30C148BF0B6070471FB500F0E1
:100200003DFD1FBD10B510BD00F031F81146FFF7E0
:10021000F5FF00F063FC00F04FF803B4FFF7F2FFC6
:1002200003BC00F057F80000094880470948004720
:10023000FEE7FEE7FEE7FEE7FEE7FEE7FEE7FEE796
:10024000FEE7FEE704480549054A064B70470000F3
:100250007107000889010008D8000020D806002096
:10026000D8020020D80200207047704770477546BA
:1002700000F02CF8AE4605006946534620F0070012
:10028000854618B020B5FFF7DDFFBDE820404FF0F0
:1002900000064FF000074FF000084FF0000B21F070
:1002A0000701AC46ACE8C009ACE8C009ACE8C0093D
:1002B000ACE8C0098D46704710B50446AFF3008026
:1002C0002046BDE81040FFF7A8BF00000048704777
:1002D0007400002001491820ABBEFEE72600020092
:1002E0007047F0B50A4600210023002400BF3DE01E
:1002F000012505FA01F3156805EA03049C4234D18F
:1003000005684F000326BE40B543056015794E00D1
:10031000B5400668354305601579012D02D0157981
:10032000022D16D185684F000326BE40B543856077
:1003300055794E00B540866835438560456801268D
:100340008E40B5434560456896798E40B6B23543D8
:100350004560C5684F000326BE40B543C560D579EA
:100360004E00B540C6683543C560491C1029BFD34F
:10037000F0BDF0B5002300244D07ED0E02FA05F3A1
:10038000CE1000F1200555F826504E07F70E0F2627
:10039000BE40B543CF1000F1200646F82750CE10DE
:1003A00000F1200555F8265045EA0304CE1000F16F
:1003B000200545F82640F0BD42694A404261704739
:1003C0000AB1018300E041837047000029B1064A69
:1003D00012680243044B1A6004E0034A1268824325
:1003E000014B1A60704700003038024029B1064ABC
:1003F00012680243044B1A6004E0034A1268824305
:10040000014B1A60704700004438024029B1064A87
:1004100012680243044B1A6004E0034A12688243E4
:10042000014B1A607047000024380240F0B50021EB
:1004300000220024022500260223324F3F6807F0E5
:100440000C0121B1042905D0082937D105E02E4F30
:10045000076036E02D4F076033E02A4F3F1F3F68AB
:10046000C7F38056274F3F1F3F6807F03F036EB129
:10047000264FB7FBF3F7DFF88CC0ACF1040CDCF8C7
:1004800000C0CCF3881C07FB0CF40CE01E4FB7FB3C
:10049000F3F7DFF870C0ACF1040CDCF800C0CCF36B
:1004A000881C07FB0CF4174F3F1F3F68C7F3014739
:1004B0007F1C7D00B4FBF5F7076002E0124F076078
:1004C00000BF00BF0F4F3F6807F0F0010909104F50
:1004D0007A5C0768D74047600A4F3F6807F4E051ED
:1004E000890A0B4F7A5C4768D7408760054F3F68A1
:1004F00007F46041490B064F7A5C4768D740C760F4
:10050000F0BD0000083802400024F40000127A0018
:100510002C00002000B587B001210220FFF756FF14
:1005200001210803FFF762FF3820059002208DF8B3
:10053000180000208DF81A0003208DF81900012002
:100540008DF81B0005A92248FFF7CBFE05220321E9
:100550001F48FFF70EFF052204211D48FFF709FF82
:10056000052211461A48FFF704FF01210803FFF78F
:100570004DFF00214FF48050FFF748FF0020ADF8F9
:1005800000004FF48270ADF802000020ADF80400C6
:100590000220ADF806000120ADF808004002ADF8D9
:1005A0000A003820ADF80C000020ADF80E0007203E
:1005B000ADF810006946074800F058F801210548D9
:1005C00000F03AF8FF2000F007F807B000BD000087
:1005D000000402400030014010B5044600BF022173
:1005E0000A4800F035F80028F9D02146074800F005
:1005F0003BF800BF0121054800F02AF80028F9D097
:10060000024800F02EF8C0B210BD000000300140DA
:1006100010B50446074800884FF6C77108400549E1
:10062000088008460088204308800121014800F026
:1006300003F810BD0030014021B1028842F04002B1
:10064000028004E002884FF6BF731A4002807047B0
:100650000246002013890B400BB1012000E000206E
:1006600070470146888970478181704710B5002224
:10067000028802F441520B884C8823438C88234320
:10068000CC8823430C8923434C8923438C892343FF
:10069000CC8923431A430280838B4FF2FF7423409B
:1006A00083830B8A038210BD10B500F093F810BD50
:1006B00070B500200022022300240221274D2D685E
:1006C00005F00C0020B1042806D0082834D107E03A
:1006D000234D244E356033E0234D224E35602FE00C
:1006E0001E4D2D1F2D68C5F380541C4D2D1F2D68E8
:1006F00005F03F0154B11C4DB5FBF1F5174E361F07
:100700003668C6F3881605FB06F209E0144DB5FB02
:10071000F1F5124E361F3668C6F3881605FB06F251
:100720000E4D2D1F2D68C5F301456D1C6B00B2FBEE
:10073000F3F50C4E356003E0094D0A4E356000BFFD
:1007400000BF064D2D68C5F30315084E705D054DBD
:100750002D68C540034E356070BD0000083802406A
:100760000024F4003C00002000127A00860C0008EF
:100770001448006840F4700012490860124800688C
:1007800040F001001049086000200F49083108605E
:100790000D4800680D4908400B4908600C48091DC8
:1007A0000860081F006820F48020091F08600020EE
:1007B00005490C3108604FF000600249803908603B
:1007C0007047000088ED00E000380240FFFFF6FEB1
:1007D000103000240448006820B103480068401E1F
:1007E00001490860704700000000002021B18289A3
:1007F00042F40052828104E082894DF6FF731A4070
:100800008281704700B587B001210846FFF7DEFD01
:1008100001211020FFF7EAFD072209211948FFF7FF
:10082000A8FD07220A211748FFF7A3FD4FF4C06077
:10083000059002208DF818008DF8190000208DF821
:100840001A0001208DF81B0005A90E48FFF749FD8D
:100850004FF4165001900020ADF810000C20ADF8B8
:100860000E000020ADF80C00ADF80A00ADF808004D
:1008700001A9054800F018F801210348FFF7B6FF69
:1008800007B000BD000002400010014002460020F9
:10089000B1F5007F00D100BF13880B400BB10120E0
:1008A00000E00020704700002DE9FF4705460E4696
:1008B0000024A14600BFA046B08900B100BF2C8A29
:1008C00024F44054F08804432C82AC8941F20C603B
:1008D0008443B08831890843718908430443AC815B
:1008E000AC8A24F44074B0890443AC826846FFF7B4
:1008F0009DFD2048854202D01F48854202D1DDF887
:100900000C9001E0DDF80890A88900F4004040B1A7
:1009100009EBC90000EB091031684900B0FBF1F7A1
:1009200007E009EBC90000EB091031688900B0FB52
:10093000F1F76420B7FBF0F004012009642101FB0A
:100940001078A88900F4004040B1322000EBC800C4
:10095000B0FBF1F000F00700044308E0322000EBA8
:1009600008106421B0FBF1F000F00F0004432C816B
:10097000BDE8FF87001001400014014010B5044697
:1009800000BF80210448FFF781FF0028F9D02146ED
:10099000014800F00EF810BD0010014010B50446EB
:1009A00003E014F8010BFFF7E9FF20780028F8D1E5
:1009B00010BDC1F308028280704700001CB5012100
:1009C0000220FFF703FD012000908DF804000020B5
:1009D0008DF8060003208DF8050001208DF8070032
:1009E00069460748FFF77DFC012211460448FFF7DE
:1009F000E7FCFFF78FFD0020FFF70AFE1CBD00009B
:100A00000004024010B50024002201210C48FFF729
:100A1000D7FC9020FFF7E0FD0020FFF7DDFD002070
:100A2000FFF7DAFD0020FFF7D7FDFF20FFF7D4FD29
:100A30000443012211460248FFF7C2FC204610BDC4
:100A40000004024010B5024608480023037000BFAE
:100A5000B2FBF1F301FB1323054CE45C431E184683
:100A60001C70B2FBF1F2002AF2D110BD710000201F
:100A70000C00002001B504490098086000BF02483E
:100A800000680028FBD108BD0000002010B501213E
:100A90000846FFF79BFCC0200D4908600120087143
:100AA00000208871032048710020C8710948FFF7B1
:100AB00018FC01210820FFF789FC18200449086070
:100AC00000200871C8710448FFF70BFC10BD00003E
:100AD000040000200000024000100240FFF7E8FD83
:100AE000264800684FF47A72B0FBF2F1481EB0F16C
:100AF000807F01D301201BE0481E4FF0E0225061AF
:100B000050170F22002804DB13071C0E1C4B1C542B
:100B100006E013071D0E1B4B00F00F04241F1D558C
:100B200000BF00204FF0E0229061072010610020FC
:100B300008B100BFFEE7FFF7A9FFFFF7EBFC382085
:100B4000FFF766FDFFF75EFEFFF738FF0E480188EE
:100B50000EA000F035F8FFF755FF0B490880084656
:100B6000018810A000F02CF807E040211348FFF79F
:100B700023FC4FF4FA70FFF77DFFF6E73C000020FE
:100B800000E400E018ED00E0200000200A205732C9
:100B9000355158585F54595045203D202564200A4E
:100BA000000000000A205732355158585F54595000
:100BB00045203D20307825782000000000000240CC
:100BC0000FB4F8B507A80090069C50E003E0207829
:100BD000FFF7D4FE641C2078252802D02078002856
:100BE000F5D1641C20786F2822D004DC632807D05C
:100BF00064283AD10BE0732825D0782835D129E034
:100C0000009820C80090E8B2FFF7B8FE2DE00098E9
:100C100020C80090002D03DA6D422D20FFF7AEFEB4
:100C20000A212846FFF70EFF0746FFF7B7FE1CE034
:100C3000009820C8009008212846FFF703FF0746C8
:100C4000FFF7ACFE11E0009840C800903046FFF777
:100C5000A5FE0AE0009820C8009010212846FFF762
:100C6000F1FE0746FFF79AFE00BF00BF641C207824
:100C70000028ABD10090F8BC5DF814FB4FF0407039
:100C8000E1EE100A704700000000000000000102C1
:100C90000304060708090000000001020304000025
:100CA000C00C00080000002040000000C401000843
:100CB000000D00084000002098060000E001000838
:100CC000000000000000000000000000303132335E
:100CD0003435363738394142434445460000000038
:100CE00000000000010000002400002000000000BF
:100CF0000102030401020304060708090024F400AA
:0400000508000229C4
:00000001FF
